1AIRLINE STANDARD SCHEDULE DATA SET                                                                                                                                                               000001
00000000000000000000000000000000000000000000000000000000000000000000000000000000000000000000000000000000000000000000000000000000000000000000000000000000000000000000000000000000000000000000000000000000
00000000000000000000000000000000000000000000000000000000000000000000000000000000000000000000000000000000000000000000000000000000000000000000000000000000000000000000000000000000000000000000000000000000
00000000000000000000000000000000000000000000000000000000000000000000000000000000000000000000000000000000000000000000000000000000000000000000000000000000000000000000000000000000000000000000000000000000
00000000000000000000000000000000000000000000000000000000000000000000000000000000000000000000000000000000000000000000000000000000000000000000000000000000000000000000000000000000000000000000000000000000
2LXX          09JUN0509JUN0511JAN24                                    P                                                                                                                      0914000002
00000000000000000000000000000000000000000000000000000000000000000000000000000000000000000000000000000000000000000000000000000000000000000000000000000000000000000000000000000000000000000000000000000000
00000000000000000000000000000000000000000000000000000000000000000000000000000000000000000000000000000000000000000000000000000000000000000000000000000000000000000000000000000000000000000000000000000000
00000000000000000000000000000000000000000000000000000000000000000000000000000000000000000000000000000000000000000000000000000000000000000000000000000000000000000000000000000000000000000000000000000000
00000000000000000000000000000000000000000000000000000000000000000000000000000000000000000000000000000000000000000000000000000000000000000000000000000000000000000000000000000000000000000000000000000000
3 XX   410101F09JUN0509JUN05   4    RUN21302130+0400  DZA22402240+0300  733                                                              XX   42                            W18Y112VVCGO          000003
3 XX   420101F09JUN0509JUN05   4    DZA23302330+0300  RUN02300230+0400  733                                                                                                 W18Y112VVCGO          000004
3 XX  1020101J23MAY0513JUN051 3 56  RUN08000800+0400  MRU08400840+0400  735Y                                                             XX  103                            Y118VV118             000005
3 XX  1020201J24MAY0507JUN05 2      RUN08000800+0400  MRU08400840+0400  733Y                                                             XX  103                            Y133VV133             000006
3 XX  1020301J14JUN0529JUN05123456  RUN08000800+0400  MRU08400840+0400  735Y                                                             XX  103                            Y118VV118             000007
3 XX  1020401J30JUN0530JUN05   4    RUN08000800+0400  MRU08400840+0400  733Y                                                             XX  103                            Y133VV133             000008
3 XX  1020501J01JUL0518AUG05123456  RUN08000800+0400  MRU08400840+0400  735Y                                                             XX  103                            Y118VV118             000009
3 XX  1020601G17JUL0521AUG05      7 RUN08000800+0400  MRU08400840+0400  733Y                                                             XX  103                            Y133VV133             000010
3 XX  1020701J19AUG0519AUG05    5   RUN08000800+0400  MRU08400840+0400  733Y                                                             XX  103                            Y133VV133             000011
3 XX  1020801J20AUG0507SEP05123456  RUN08000800+0400  MRU08400840+0400  735Y                                                             XX  103                            Y118VV118             000012
3 XX  1020901J08SEP0514SEP05 234    RUN08000800+0400  MRU08450845+0400  AT7Y                                                             XX  103                            Y64VV064              000013
3 XX  1021001J09SEP0519SEP051  456  RUN08000800+0400  MRU08400840+0400  733Y                                                             XX  103                            Y133VV133             000014
3 XX  1021101J20SEP0527SEP0512 456  RUN08000800+0400  MRU08400840+0400  735Y                                                             XX  103                            Y118VV118             000015
3 XX  1021201J21SEP0521SEP05  3     RUN08000800+0400  MRU08450845+0400  AT7Y                                                             XX  103                            Y64VV064              000016
3 XX  1021301J28SEP0505OCT05123456  RUN08000800+0400  MRU08400840+0400  735Y                                                             XX  103                            Y118VV118             000017
3 XX  1021401J06OCT0508OCT05   4 6  RUN08000800+0400  MRU08400840+0400  733WY                                                            XX  103                            W18Y112VV112          000018
3 XX  1021501J07OCT0514OCT051 345   RUN08000800+0400  MRU08400840+0400  735Y                                                             XX  103                            Y118VV118             000019
3 XX  1021601J11OCT0517OCT0512    7 RUN08000800+0400  MRU08400840+0400  733Y                                                             XX  103                            Y133VV133             000020
3 XX  1021701J15OCT0515OCT05     6  RUN08000800+0400  MRU08400840+0400  735Y                                                             XX  103                            Y118VV118             000021
3 XX  1021801J18OCT0525OCT05 23     RUN08000800+0400  MRU08400840+0400  733WY                                                            XX  103                            W18Y112VV112          000022
3 XX  1021901J20OCT0529OCT051 34567 RUN08000800+0400  MRU08400840+0400  733Y                                                             XX  103                            Y133VV133             000023
3 XX  1030101J23MAY0513JUN051 3 56  MRU09250925+0400  RUN10051005+0400  735Y                                                                                                Y118VV118             000024
3 XX  1030201J24MAY0507JUN05 2      MRU09250925+0400  RUN10051005+0400  733Y                                                                                                Y133VV133             000025
3 XX  1030301J14JUN0529JUN05123456  MRU09250925+0400  RUN10051005+0400  735Y                                                                                                Y118VV118             000026
3 XX  1030401J30JUN0530JUN05   4    MRU09250925+0400  RUN10051005+0400  733Y                                                                                                Y133VV133             000027
3 XX  1030501J01JUL0518AUG05123456  MRU09250925+0400  RUN10051005+0400  735Y                                                                                                Y118VV118             000028
3 XX  1030601G17JUL0521AUG05      7 MRU09250925+0400  RUN10051005+0400  733Y                                                                                                Y133VV133             000029
3 XX  1030701J19AUG0519AUG05    5   MRU09250925+0400  RUN10051005+0400  733Y                                                                                                Y133VV133             000030
3 XX  1030801J20AUG0507SEP05123456  MRU09250925+0400  RUN10051005+0400  735Y                                                                                                Y118VV118             000031
3 XX  1030901J08SEP0514SEP05 234    MRU09250925+0400  RUN10101010+0400  AT7Y                                                                                                Y64VV064              000032
3 XX  1031001J09SEP0519SEP051  456  MRU09250925+0400  RUN10051005+0400  733Y                                                                                                Y133VV133             000033
3 XX  1031101J20SEP0527SEP0512 456  MRU09250925+0400  RUN10051005+0400  735Y                                                                                                Y118VV118             000034
3 XX  1031201J21SEP0521SEP05  3     MRU09250925+0400  RUN10101010+0400  AT7Y                                                                                                Y64VV064              000035
3 XX  1031301J28SEP0505OCT05123456  MRU09250925+0400  RUN10051005+0400  735Y                                                                                                Y118VV118             000036
3 XX  1031401J06OCT0508OCT05   4 6  MRU09250925+0400  RUN10051005+0400  733WY                                                                                               W18Y112VV112          000037
3 XX  1031501J07OCT0514OCT051 345   MRU09250925+0400  RUN10051005+0400  735Y                                                                                                Y118VV118             000038
3 XX  1031601J11OCT0517OCT0512    7 MRU09250925+0400  RUN10051005+0400  733Y                                                                                                Y133VV133             000039
3 XX  1031701J15OCT0522OCT05   456  MRU09250925+0400  RUN10051005+0400  735Y                                                                                                Y118VV118             000040
3 XX  1031801J18OCT0525OCT05 23     MRU09250925+0400  RUN10051005+0400  733WY                                                                                               W18Y112VV112          000041
3 XX  1031901J23OCT0528OCT051 345 7 MRU09250925+0400  RUN10051005+0400  735Y                                                                                                Y118VV118             000042
3 XX  1040101J22MAY0510JUL05      7 RUN15051505+0400  MRU15501550+0400  AT7Y                                                                                                Y64VV064              000043
3 XX  1040201J13JUL0506AUG05  3  6  RUN15051505+0400  MRU15501550+0400  AT7Y                                                                                                Y64VV064              000044
3 XX  1040301J10AUG0510AUG05  3     RUN16401640+0400  MRU17251725+0400  AT7Y                                                                                                Y64VV064              000045
3 XX  1040401J13AUG0520AUG05  3  6  RUN15051505+0400  MRU15501550+0400  AT7Y                                                                                                Y64VV064              000046
3 XX  1040501J28AUG0509OCT05      7 RUN15051505+0400  MRU15501550+0400  AT7Y                                                                                                Y64VV064              000047
3 XX  1040601J12OCT0522OCT05  3  6  RUN15051505+0400  MRU15501550+0400  AT7Y                                                                                                Y64VV064              000048
3 XX  1050101J22MAY0510JUL05      7 MRU13301330+0400  RUN14151415+0400  AT7Y                                                             XX  104                            Y64VV064              000049
3 XX  1050201J13JUL0506AUG05  3  6  MRU13301330+0400  RUN14151415+0400  AT7Y                                                             XX  104                            Y64VV064              000050
3 XX  1050301J10AUG0510AUG05  3     MRU15201520+0400  RUN16051605+0400  AT7Y                                                             XX  104                            Y64VV064              000051
3 XX  1050401J13AUG0520AUG05  3  6  MRU13301330+0400  RUN14151415+0400  AT7Y                                                             XX  104                            Y64VV064              000052
3 XX  1050501J28AUG0509OCT05      7 MRU13301330+0400  RUN14151415+0400  AT7Y                                                             XX  104                            Y64VV064              000053
3 XX  1050601J12OCT0522OCT05  3  6  MRU13301330+0400  RUN14151415+0400  AT7Y                                                             XX  104                            Y64VV064              000054
3 XX  1080101J22MAY0512JUN05     67 RUN17001700+0400  MRU17401740+0400  733Y                                                             XX  109                            Y133VV133             000055
3 XX  1080201J23MAY0515JUN05123 5   RUN17001700+0400  MRU17401740+0400  735Y                                                             XX  109                            Y118VV118             000056
3 XX  1080301J16JUN0529JUN051234567 RUN17001700+0400  MRU17401740+0400  735Y                                                             XX  109                            Y118VV118             000057
3 XX  1080401J30JUN0530JUN05   4    RUN17001700+0400  MRU17401740+0400  733Y                                                             XX  109                            Y133VV133             000058
3 XX  1080501J01JUL0503AUG051234567 RUN17001700+0400  MRU17401740+0400  735Y                                                             XX  109                            Y118VV118             000059
3 XX  1080601J04AUG0504AUG05   4    RUN17001700+0400  MRU17401740+0400  733Y                                                             XX  109                            Y133VV133             000060
3 XX  1080701J05AUG0514AUG05 234567 RUN17001700+0400  MRU17401740+0400  735Y                                                             XX  109                            Y118VV118             000061
3 XX  1080801J08AUG0508AUG051       RUN22302230+0400  MRU23102310+0400  735Y                                                             XX  109                            Y118VV118             000062
3 XX  1080901J15AUG0528AUG051234 67 RUN17001700+0400  MRU17401740+0400  735Y                                                             XX  109                            Y118VV118             000063
3 XX  1081001J19AUG0519AUG05    5   RUN17201720+0400  MRU18001800+0400  772JWY                                                           XX  109                            J14W34Y316VV364       000064
3 XX  1081101J29AUG0529AUG051       RUN17001700+0400  MRU17401740+0400  733Y                                                             XX  109                            Y133VV133             000065
3 XX  1081201J30AUG0507SEP051234567 RUN17001700+0400  MRU17401740+0400  735Y                                                             XX  109                            Y118VV118             000066
3 XX  1081301J08SEP0514SEP051 34 67 RUN17001700+0400  MRU17401740+0400  733Y                                                             XX  109                            Y133VV133             000067
3 XX  1081401J09SEP0516SEP05 2 45   RUN17001700+0400  MRU17401740+0400  735Y                                                             XX  109                            Y118VV118             000068
3 XX  1081501J17SEP0528SEP051234567 RUN17001700+0400  MRU17401740+0400  735Y                                                             XX  109                            Y118VV118             000069
3 XX  1081601J29SEP0511OCT05 2 4    RUN17001700+0400  MRU17401740+0400  733WY                                                            XX  109                            W18Y112VV112          000070
3 XX  1081701J30SEP0512OCT051 3 567 RUN17001700+0400  MRU17401740+0400  735Y                                                             XX  109                            Y118VV118             000071
3 XX  1081801J13OCT0529OCT051234567 RUN17001700+0400  MRU17401740+0400  735Y                                                             XX  109                            Y118VV118             000072
3 XX  1090101J22MAY0512JUN05     67 MRU18251825+0400  RUN19051905+0400  733Y                                                                                                Y133VV133             000073
3 XX  1090201J23MAY0515JUN05123 5   MRU18251825+0400  RUN19051905+0400  735Y                                                                                                Y118VV118             000074
3 XX  1090301J16JUN0529JUN051234567 MRU18251825+0400  RUN19051905+0400  735Y                                                                                                Y118VV118             000075
3 XX  1090401J30JUN0530JUN05   4    MRU18251825+0400  RUN19051905+0400  733Y                                                                                                Y133VV133             000076
3 XX  1090501J01JUL0503AUG051234567 MRU18251825+0400  RUN19051905+0400  735Y                                                                                                Y118VV118             000077
3 XX  1090601J04AUG0504AUG05   4    MRU18251825+0400  RUN19051905+0400  733Y                                                                                                Y133VV133             000078
3 XX  1090701J05AUG0514AUG05 234567 MRU18251825+0400  RUN19051905+0400  735Y                                                                                                Y118VV118             000079
3 XX  1090801J08AUG0508AUG051       MRU23552355+0400  RUN00350035+0400  735Y                                                                                                Y118VV118             000080
3 XX  1090901J15AUG0528AUG051234 67 MRU18251825+0400  RUN19051905+0400  735Y                                                                                                Y118VV118             000081
3 XX  1091001J19AUG0519AUG05    5   MRU18451845+0400  RUN19251925+0400  772JWY                                                                                              J14W34Y316VV364       000082
3 XX  1091101J29AUG0529AUG051       MRU18251825+0400  RUN19051905+0400  733Y                                                                                                Y133VV133             000083
3 XX  1091201J30AUG0507SEP051234567 MRU18251825+0400  RUN19051905+0400  735Y                                                                                                Y118VV118             000084
3 XX  1091301J08SEP0514SEP051 34 67 MRU18251825+0400  RUN19051905+0400  733Y                                                                                                Y133VV133             000085
3 XX  1091401J09SEP0516SEP05 2 45   MRU18251825+0400  RUN19051905+0400  735Y                                                                                                Y118VV118             000086
3 XX  1091501J17SEP0528SEP051234567 MRU18251825+0400  RUN19051905+0400  735Y                                                                                                Y118VV118             000087
3 XX  1091601J29SEP0511OCT05 2 4    MRU18251825+0400  RUN19051905+0400  733WY                                                                                               W18Y112VV112          000088
3 XX  1091701J30SEP0512OCT051 3 567 MRU18251825+0400  RUN19051905+0400  735Y                                                                                                Y118VV118             000089
3 XX  1091801J13OCT0529OCT051234567 MRU18251825+0400  RUN19051905+0400  735Y                                                                                                Y118VV118             000090
3 XX  1140101J22MAY0530MAY05123 567 ZSE12001200+0400  MRU12501250+0400  AT7Y                                                             XX  115                            Y64VV064              000091
3 XX  1140201J01JUN0515JUN05123 567 ZSE12001200+0400  MRU12501250+0400  AT7Y                                                             XX  115                            Y64VV064              000092
3 XX  1140301J16JUN0520JUL051234567 ZSE12001200+0400  MRU12501250+0400  AT7Y                                                             XX  115                            Y64VV064              000093
3 XX  1140401J21JUL0521JUL05   4    ZSE13101310+0400  MRU14001400+0400  AT7Y                                                             XX  115                            Y64VV064              000094
3 XX  1140501J22JUL0509AUG051234567 ZSE12001200+0400  MRU12501250+0400  AT7Y                                                             XX  115                            Y64VV064              000095
3 XX  1140601J10AUG0510AUG05  3     ZSE13501350+0400  MRU14401440+0400  AT7Y                                                             XX  115                            Y64VV064              000096
3 XX  1140701J11AUG0529OCT051234567 ZSE12001200+0400  MRU12501250+0400  AT7Y                                                             XX  115                            Y64VV064              000097
3 XX  1150101J22MAY0530MAY05123 567 MRU16301630+0400  ZSE17201720+0400  AT7Y                                                                                                Y64VV064              000098
3 XX  1150201J01JUN0515JUN05123 567 MRU16301630+0400  ZSE17201720+0400  AT7Y                                                                                                Y64VV064              000099
3 XX  1150301J16JUN0520JUL051234567 MRU16301630+0400  ZSE17201720+0400  AT7Y                                                                                                Y64VV064              000100
3 XX  1150401J21JUL0521JUL05   4    MRU17401740+0400  ZSE18301830+0400  AT7Y                                                                                                Y64VV064              000101
3 XX  1150501J22JUL0509AUG051234567 MRU16301630+0400  ZSE17201720+0400  AT7Y                                                                                                Y64VV064              000102
3 XX  1150601J10AUG0510AUG05  3     MRU18051805+0400  ZSE18551855+0400  AT7Y                                                                                                Y64VV064              000103
3 XX  1150701J11AUG0529OCT051234567 MRU16301630+0400  ZSE17201720+0400  AT7Y                                                                                                Y64VV064              000104
3 XX  1180101J12JUL0519JUL0512 45   ZSE15001500+0400  MRU15501550+0400  AT7Y                                                                                                Y64VV064              000105
3 XX  1180201G17JUL0521AUG05      7 ZSE15001500+0400  MRU15501550+0400  AT7Y                                                                                                Y64VV064              000106
3 XX  1180301J21JUL0521JUL05   4    ZSE16101610+0400  MRU17001700+0400  AT7Y                                                                                                Y64VV064              000107
3 XX  1180401J22JUL0522AUG0512 45   ZSE15001500+0400  MRU15501550+0400  AT7Y                                                                                                Y64VV064              000108
3 XX  1180501J13OCT0523OCT05 2 45 7 ZSE15001500+0400  MRU15501550+0400  AT7Y                                                                                                Y64VV064              000109
3 XX  1180601J17OCT0517OCT051       MRU13301330+0400  ZSE14201420+0400  AT7Y                                                             XX  119                            Y64VV064              000110
3 XX  1190101J12JUL0519JUL0512 45   MRU13301330+0400  ZSE14201420+0400  AT7Y                                                             XX  118                            Y64VV064              000111
3 XX  1190201G17JUL0521AUG05      7 MRU13301330+0400  ZSE14201420+0400  AT7Y                                                             XX  118                            Y64VV064              000112
3 XX  1190301J21JUL0521JUL05   4    MRU14401440+0400  ZSE15301530+0400  AT7Y                                                             XX  118                            Y64VV064              000113
3 XX  1190401J22JUL0522AUG0512 45   MRU13301330+0400  ZSE14201420+0400  AT7Y                                                             XX  118                            Y64VV064              000114
3 XX  1190501J13OCT0523OCT05 2 45 7 MRU13301330+0400  ZSE14201420+0400  AT7Y                                                             XX  118                            Y64VV064              000115
3 XX  1190601J17OCT0517OCT051       ZSE15001500+0400  MRU15501550+0400  AT7Y                                                                                                Y64VV064              000116
3 XX  1200101G15OCT0515OCT05     6  RUN06450645+0400  MRU07300730+0400  AT7Y                                                             XX  121                            Y64VV064              000117
3 XX  1210101G15OCT0515OCT05     6  MRU08100810+0400  RUN08550855+0400  AT7Y                                                                                                Y64VV064              000118
3 XX  1220101G13JUL0520JUL05 23     RUN07000700+0400  MRU07400740+0400  733Y                                                             XX  123                            Y133VV133             000119
3 XX  1220201G27JUL0510AUG05  3     RUN07000700+0400  MRU07400740+0400  733Y                                                             XX  123                            Y133VV133             000120
3 XX  1220301G12OCT0512OCT05  3     RUN07000700+0400  MRU07400740+0400  733Y                                                             XX  123                            Y133VV133             000121
3 XX  1230101G13JUL0520JUL05 23     MRU08250825+0400  RUN09050905+0400  733Y                                                                                                Y133VV133             000122
3 XX  1230201G27JUL0510AUG05  3     MRU08250825+0400  RUN09050905+0400  733Y                                                                                                Y133VV133             000123
3 XX  1230301G12OCT0512OCT05  3     MRU08250825+0400  RUN09050905+0400  733Y                                                                                                Y133VV133             000124
3 XX  1240101G14JUL0521JUL05   4    RUN07450745+0400  MRU08250825+0400  733Y                                                             XX  125                            Y133VV133             000125
3 XX  1240201G18JUL0518JUL051       RUN07450745+0400  MRU08250825+0400  733WY                                                            XX  125                            W18Y112VV112          000126
3 XX  1240301G25JUL0501AUG051  4    RUN07450745+0400  MRU08250825+0400  733Y                                                             XX  125                            Y133VV133             000127
3 XX  1240401G08AUG0515AUG051       RUN07450745+0400  MRU08250825+0400  733Y                                                             XX  125                            Y133VV133             000128
3 XX  1240501G17OCT0517OCT051       RUN07450745+0400  MRU08250825+0400  733Y                                                             XX  125                            Y133VV133             000129
3 XX  1250101G14JUL0521JUL05   4    MRU09100910+0400  RUN09500950+0400  733Y                                                                                                Y133VV133             000130
3 XX  1250201G18JUL0518JUL051       MRU09100910+0400  RUN09500950+0400  733WY                                                                                               W18Y112VV112          000131
3 XX  1250301G25JUL0501AUG051  4    MRU09100910+0400  RUN09500950+0400  733Y                                                                                                Y133VV133             000132
3 XX  1250401G08AUG0515AUG051       MRU09100910+0400  RUN09500950+0400  733Y                                                                                                Y133VV133             000133
3 XX  1250501G17OCT0517OCT051       MRU09100910+0400  RUN09500950+0400  733Y                                                                                                Y133VV133             000134
3 XX  1260101G14JUL0521JUL05   4    RUN10501050+0400  MRU11301130+0400  735Y                                                             XX  127                            Y118VV118             000135
3 XX  1260201G17JUL0515AUG051     7 RUN10501050+0400  MRU11301130+0400  733Y                                                             XX  127                            Y133VV133             000136
3 XX  1260301G26JUL0511AUG05 2 4    RUN10501050+0400  MRU11301130+0400  735Y                                                             XX  127                            Y118VV118             000137
3 XX  1260401G18AUG0518AUG05   4    RUN10501050+0400  MRU11301130+0400  735Y                                                             XX  127                            Y118VV118             000138
3 XX  1260501G13OCT0520OCT05 2 4    RUN10501050+0400  MRU11301130+0400  735Y                                                             XX  127                            Y118VV118             000139
3 XX  1260601G16OCT0523OCT051     7 RUN10501050+0400  MRU11301130+0400  733Y                                                             XX  127                            Y133VV133             000140
3 XX  1270101G14JUL0521JUL05   4    MRU12151215+0400  RUN12551255+0400  735Y                                                                                                Y118VV118             000141
3 XX  1270201G17JUL0515AUG051     7 MRU12151215+0400  RUN12551255+0400  733Y                                                                                                Y133VV133             000142
3 XX  1270301G26JUL0511AUG05 2 4    MRU12151215+0400  RUN12551255+0400  735Y                                                                                                Y118VV118             000143
3 XX  1270401G18AUG0518AUG05   4    MRU12151215+0400  RUN12551255+0400  735Y                                                                                                Y118VV118             000144
3 XX  1270501G13OCT0520OCT05 2 4    MRU12151215+0400  RUN12551255+0400  735Y                                                                                                Y118VV118             000145
3 XX  1270601G16OCT0523OCT051     7 MRU12151215+0400  RUN12551255+0400  733Y                                                                                                Y133VV133             000146
3 XX  1280101G15JUL0519AUG05    5   RUN14001400+0400  MRU14401440+0400  772JWY                                                           XX  129                            J14W34Y316VV364       000147
3 XX  1280201G21AUG0521AUG05      7 RUN14001400+0400  MRU14401440+0400  772JWY                                                           XX  129                            J14W34Y316VV364       000148
3 XX  1280301G14OCT0523OCT05    5 7 RUN14001400+0400  MRU14401440+0400  772JWY                                                           XX  129                            J14W34Y316VV364       000149
3 XX  1290101G15JUL0519AUG05    5   MRU15401540+0400  RUN16201620+0400  772JWY                                                                                              J14W34Y316VV364       000150
3 XX  1290201G21AUG0521AUG05      7 MRU15401540+0400  RUN16201620+0400  772JWY                                                                                              J14W34Y316VV364       000151
3 XX  1290301G14OCT0523OCT05    5 7 MRU15401540+0400  RUN16201620+0400  772JWY                                                                                              J14W34Y316VV364       000152
3 XX  1300101G14JUL0521JUL05   4    RUN13501350+0400  MRU14301430+0400  735Y                                                             XX  131                            Y118VV118             000153
3 XX  1300201G17JUL0515AUG051     7 RUN13501350+0400  MRU14301430+0400  733Y                                                             XX  131                            Y133VV133             000154
3 XX  1300301G26JUL0511AUG05 2 4    RUN13501350+0400  MRU14301430+0400  735Y                                                             XX  131                            Y118VV118             000155
3 XX  1300401G18AUG0518AUG05   4    RUN13501350+0400  MRU14301430+0400  735Y                                                             XX  131                            Y118VV118             000156
3 XX  1300501G22AUG0522AUG051       RUN13501350+0400  MRU14301430+0400  733Y                                                             XX  131                            Y133VV133             000157
3 XX  1300601G13OCT0520OCT05 2 4    RUN13501350+0400  MRU14301430+0400  735Y                                                             XX  131                            Y118VV118             000158
3 XX  1300701G16OCT0523OCT051     7 RUN13501350+0400  MRU14301430+0400  733Y                                                             XX  131                            Y133VV133             000159
3 XX  1310101G14JUL0521JUL05   4    MRU15151515+0400  RUN15551555+0400  735Y                                                                                                Y118VV118             000160
3 XX  1310201G17JUL0515AUG051     7 MRU15151515+0400  RUN15551555+0400  733Y                                                                                                Y133VV133             000161
3 XX  1310301G26JUL0511AUG05 2 4    MRU15151515+0400  RUN15551555+0400  735Y                                                                                                Y118VV118             000162
3 XX  1310401G18AUG0518AUG05   4    MRU15151515+0400  RUN15551555+0400  735Y                                                                                                Y118VV118             000163
3 XX  1310501G22AUG0522AUG051       MRU15151515+0400  RUN15551555+0400  733Y                                                                                                Y133VV133             000164
3 XX  1310601G13OCT0520OCT05 2 4    MRU15151515+0400  RUN15551555+0400  735Y                                                                                                Y118VV118             000165
3 XX  1310701G16OCT0523OCT051     7 MRU15151515+0400  RUN15551555+0400  733Y                                                                                                Y133VV133             000166
3 XX  1320101G24JUL0514AUG05      7 RUN17151715+0400  MRU17551755+0400  733Y                                                             XX  133                            Y133VV133             000167
3 XX  1320201G16OCT0523OCT05      7 RUN17151715+0400  MRU17551755+0400  733Y                                                             XX  133                            Y133VV133             000168
3 XX  1320301G17OCT0517OCT051       RUN16451645+0400  MRU17251725+0400  733Y                                                             XX  133                            Y133VV133             000169
3 XX  1330101G24JUL0514AUG05      7 MRU18401840+0400  RUN19201920+0400  733Y                                                                                                Y133VV133             000170
3 XX  1330201G16OCT0523OCT05      7 MRU18401840+0400  RUN19201920+0400  733Y                                                                                                Y133VV133             000171
3 XX  1330301G17OCT0517OCT051       MRU18101810+0400  RUN18501850+0400  733Y                                                                                                Y133VV133             000172
3 XX  1380101G16AUG0516AUG05 2      RUN19201920+0400  MRU20002000+0400  733Y                                                             XX  139                            Y133VV133             000173
3 XX  1390101G16AUG0516AUG05 2      MRU20452045+0400  RUN21252125+0400  733Y                                                                                                Y133VV133             000174
3 XX  1400101J03AUG0503AUG05  3     RUN21302130+0400  MRU22152215+0400  AT7Y                                                             XX  141                            Y64VV064              000175
3 XX  1400201G13AUG0520AUG05     6  RUN19501950+0400  MRU20302030+0400  735Y                                                             XX  141                            Y118VV118             000176
3 XX  1400301G22OCT0522OCT05     6  RUN19501950+0400  MRU20302030+0400  735Y                                                             XX  141                            Y118VV118             000177
3 XX  1410101J03AUG0503AUG05  3     MRU22502250+0400  RUN23352335+0400  AT7Y                                                                                                Y64VV064              000178
3 XX  1410201G13AUG0520AUG05     6  MRU21152115+0400  RUN21552155+0400  735Y                                                                                                Y118VV118             000179
3 XX  1410301G22OCT0522OCT05     6  MRU21152115+0400  RUN21552155+0400  735Y                                                                                                Y118VV118             000180
3 XX  2010101J22MAY0504JUN05     67 RUN10101010+0400  DZA11201120+0300  733WY                                                            XX  202                            W18Y112VV112          000181
3 XX  2010201J23MAY0530MAY051       RUN10101010+0400  DZA11201120+0300  733WY                                                                                               W18Y112VV112          000182
3 XX  2010202J23MAY0530MAY051       DZA12101210+0300  HAH12501250+0300  733WY                                                                                               W18Y112VV112          000183
3 XX  2010301J25MAY0510JUN05  3 5   RUN13151315+0400  DZA14251425+0300  733WY                                                            XX  202                            W18Y112VV112          000184
3 XX  2010401J26MAY0526MAY05   4    RUN10101010+0400  DZA11201120+0300  735Y                                                                                                Y118VV118             000185
3 XX  2010402J26MAY0526MAY05   4    DZA12101210+0300  HAH12501250+0300  735Y                                                                                                Y118VV118             000186
3 XX  2010501J31MAY0531MAY05 2      RUN10101010+0400  DZA11201120+0300  735WY                                                                                               W18Y97VV097           000187
3 XX  2010601J02JUN0506JUN051  4    RUN10101010+0400  DZA11201120+0300  733WY                                                                                               W18Y112VV112          000188
3 XX  2010602J02JUN0506JUN051  4    DZA12101210+0300  HAH12501250+0300  733WY                                                                                               W18Y112VV112          000189
3 XX  2010701J09JUN0509JUN05   4    RUN10101010+0400  DZA11201120+0300  735Y                                                                                                Y118VV118             000190
3 XX  2010702J09JUN0509JUN05   4    DZA12101210+0300  HAH12501250+0300  735Y                                                                                                Y118VV118             000191
3 XX  2010801J11JUN0512JUN05     67 RUN10101010+0400  DZA11201120+0300  733WY                                                            XX  202                            W18Y112VV112          000192
3 XX  2010901J13JUN0513JUN051       RUN10101010+0400  DZA11201120+0300  733WY                                                                                               W18Y112VV112          000193
3 XX  2010902J13JUN0513JUN051       DZA12101210+0300  HAH12501250+0300  733WY                                                                                               W18Y112VV112          000194
3 XX  2011001J13SEP0528SEP05 23     RUN10101010+0400  DZA11201120+0300  733WY                                                            XX  202                            W18Y112VV112          000195
3 XX  2011101J04OCT0504OCT05 2      RUN11101110+0400  DZA12201220+0300  735WY                                                            XX  202                            W18Y97VV097           000196
3 XX  2011201J05OCT0512OCT05  3     RUN10101010+0400  DZA11201120+0300  733WY                                                            XX  202                            W18Y112VV112          000197
3 XX  2011301J11OCT0511OCT05 2      RUN11101110+0400  DZA12201220+0300  733WY                                                            XX  202                            W18Y112VV112          000198
3 XX  2011401J18OCT0526OCT05 23     RUN11051105+0400  DZA12151215+0300  733WY                                                            XX  202                            W18Y112VV112          000199
3 XX  2020101J22MAY0529MAY05      7 DZA12101210+0300  RUN15101510+0400  733WY                                                                                               W18Y112VV112          000200
3 XX  2020201J23MAY0530MAY051       HAH13401340+0300  DZA14201420+0300  733WY                                                                                               W18Y112VV112          000201
3 XX  2020202J23MAY0530MAY051       DZA15151515+0300  RUN18151815+0400  733WY                                                                                               W18Y112VV112          000202
3 XX  2020301J25MAY0511JUN05  3 56  DZA15151515+0300  RUN18151815+0400  733WY                                                                                               W18Y112VV112          000203
3 XX  2020401J26MAY0526MAY05   4    HAH13401340+0300  DZA14201420+0300  735Y                                                                                                Y118VV118             000204
3 XX  2020402J26MAY0526MAY05   4    DZA15151515+0300  RUN18151815+0400  735Y                                                                                                Y118VV118             000205
3 XX  2020501J31MAY0531MAY05 2      DZA12101210+0300  RUN15101510+0400  735WY                                                                                               W18Y97VV097           000206
3 XX  2020601J02JUN0506JUN051  4    HAH13401340+0300  DZA14201420+0300  733WY                                                                                               W18Y112VV112          000207
3 XX  2020602J02JUN0506JUN051  4    DZA15151515+0300  RUN18151815+0400  733WY                                                                                               W18Y112VV112          000208
3 XX  2020701J09JUN0509JUN05   4    HAH13401340+0300  DZA14201420+0300  735Y                                                                                                Y118VV118             000209
3 XX  2020702J09JUN0509JUN05   4    DZA15151515+0300  RUN18151815+0400  735Y                                                                                                Y118VV118             000210
3 XX  2020801J12JUN0512JUN05      7 DZA12101210+0300  RUN15101510+0400  733WY                                                                                               W18Y112VV112          000211
3 XX  2020901J13JUN0513JUN051       HAH13401340+0300  DZA14201420+0300  733WY                                                                                               W18Y112VV112          000212
3 XX  2020902J13JUN0513JUN051       DZA15151515+0300  RUN18151815+0400  733WY                                                                                               W18Y112VV112          000213
3 XX  2021001J14SEP0528SEP05 23     DZA15201520+0300  RUN18201820+0400  733WY                                                                                               W18Y112VV112          000214
3 XX  2021101J04OCT0504OCT05 2      DZA16201620+0300  RUN19201920+0400  735WY                                                                                               W18Y97VV097           000215
3 XX  2021201J05OCT0512OCT05  3     DZA15201520+0300  RUN18201820+0400  733WY                                                                                               W18Y112VV112          000216
3 XX  2021301J11OCT0511OCT05 2      DZA16201620+0300  RUN19201920+0400  733WY                                                                                               W18Y112VV112          000217
3 XX  2021401J18OCT0526OCT05 23     DZA16151615+0300  RUN19151915+0400  733WY                                                                                               W18Y112VV112          000218
3 XX  2030101J28MAY0511JUN05     6  RUN07300730+0400  DZA08400840+0300  733WY                                                                                               W18Y112VV112          000219
3 XX  2030102J28MAY0511JUN05     6  DZA09300930+0300  HAH10101010+0300  733WY                                                                                               W18Y112VV112          000220
3 XX  2030201J06JUN0506JUN051       RUN11101110+0400  DZA12201220+0300  733WY                                                            XX  204                            W18Y112VV112          000221
3 XX  2030301J13JUN0513JUN051       RUN11101110+0400  DZA12201220+0300  733Y                                                             XX  204                            Y133VV133             000222
3 XX  2030401J15JUN0503AUG05  3     NOS13451345+0300  DZA14301430+0300  733WY                                                                                               W18Y112VV112          000223
3 XX  2030501J17JUN0528OCT05    5   RUN10501050+0400  NOS11401140+0300  733WY                                                                                               W18Y112VV112          000224
3 XX  2030502J17JUN0528OCT05    5   NOS12301230+0300  DZA13151315+0300  733WY                                                                                               W18Y112VV112          000225
3 XX  2030503J17JUN0528OCT05    5   DZA14051405+0300  HAH14451445+0300  733WY                                                                                               W18Y112VV112          000226
3 XX  2030601J10AUG0510AUG05  3     NOS14301430+0300  DZA15151515+0300  733WY                                                                                               W18Y112VV112          000227
3 XX  2030701J17AUG0512OCT05  3     NOS13451345+0300  DZA14301430+0300  733WY                                                                                               W18Y112VV112          000228
3 XX  2030801J04OCT0525OCT05 2      RUN07300730+0400  DZA08400840+0300  735WY                                                                                               W18Y97VV097           000229
3 XX  2030802J04OCT0525OCT05 2      DZA09300930+0300  HAH10101010+0300  735WY                                                            XX  204                            W18Y97VV097           000230
3 XX  2030901J19OCT0526OCT05  3     NOS14401440+0300  DZA15251525+0300  733WY                                                                                               W18Y112VV112          000231
3 XX  2040101J28MAY0511JUN05     6  HAH11001100+0300  DZA11401140+0300  733WY                                                                                               W18Y112VV112          000232
3 XX  2040102J28MAY0511JUN05     6  DZA12351235+0300  RUN15351535+0400  733WY                                                                                               W18Y112VV112          000233
3 XX  2040201J06JUN0506JUN051       DZA13101310+0300  RUN16101610+0400  733WY                                                                                               W18Y112VV112          000234
3 XX  2040301J13JUN0513JUN051       DZA13101310+0300  RUN16101610+0400  733Y                                                                                                Y133VV133             000235
3 XX  2040401J15JUN0503AUG05  3     DZA12101210+0300  NOS12551255+0300  733WY                                                                                               W18Y112VV112          000236
3 XX  2040501J19JUN0504SEP05      7 HAH09250925+0300  DZA10051005+0300  735WY                                                                                               W18Y97VV097           000237
3 XX  2040502J19JUN0504SEP05      7 DZA10551055+0300  NOS11401140+0300  735WY                                                                                               W18Y97VV097           000238
3 XX  2040503J19JUN0504SEP05      7 NOS12301230+0300  RUN15101510+0400  735WY                                                                                               W18Y97VV097           000239
3 XX  2040601J10AUG0510AUG05  3     DZA12551255+0300  NOS13401340+0300  733WY                                                                                               W18Y112VV112          000240
3 XX  2040701J17AUG0512OCT05  3     DZA12101210+0300  NOS12551255+0300  733WY                                                                                               W18Y112VV112          000241
3 XX  2040801J11SEP0511SEP05      7 HAH09250925+0300  DZA10051005+0300  733WY                                                                                               W18Y112VV112          000242
3 XX  2040802J11SEP0511SEP05      7 DZA10551055+0300  NOS11401140+0300  733WY                                                                                               W18Y112VV112          000243
3 XX  2040803J11SEP0511SEP05      7 NOS12301230+0300  RUN15101510+0400  733WY                                                                                               W18Y112VV112          000244
3 XX  2040901J18SEP0523OCT05      7 HAH09250925+0300  DZA10051005+0300  735WY                                                                                               W18Y97VV097           000245
3 XX  2040902J18SEP0523OCT05      7 DZA10551055+0300  NOS11401140+0300  735WY                                                                                               W18Y97VV097           000246
3 XX  2040903J18SEP0523OCT05      7 NOS12301230+0300  RUN15101510+0400  735WY                                                                                               W18Y97VV097           000247
3 XX  2041001J04OCT0525OCT05 2      HAH11001100+0300  DZA11401140+0300  735WY                                                                                               W18Y97VV097           000248
3 XX  2041002J04OCT0525OCT05 2      DZA12301230+0300  RUN15301530+0400  735WY                                                                                               W18Y97VV097           000249
3 XX  2041101J19OCT0526OCT05  3     DZA13051305+0300  NOS13501350+0300  733WY                                                                                               W18Y112VV112          000250
3 XX  2050101J26MAY0509JUN05   4    RUN11051105+0400  DZA12151215+0300  733WY                                                            XX  244                            W18Y112VV112          000251
3 XX  2060101J26MAY0509JUN05   4    DZA16151615+0300  RUN19151915+0400  733WY                                                                                               W18Y112VV112          000252
3 XX  2100101J22MAY0512JUN05      7 RUN12001200+0400  NOS12501250+0300  735WY                                                                                               W18Y97VV097           000253
3 XX  2100102J22MAY0512JUN05      7 NOS13401340+0300  DZA14251425+0300  735WY                                                                                               W18Y97VV097           000254
3 XX  2100103J22MAY0512JUN05      7 DZA15151515+0300  RUN18151815+0400  735WY                                                                                               W18Y97VV097           000255
3 XX  2100201J24MAY0507JUN05 2      RUN12001200+0400  NOS12501250+0300  733WY                                                                                               W18Y112VV112          000256
3 XX  2100202J24MAY0507JUN05 2      NOS13401340+0300  DZA14251425+0300  733WY                                                                                               W18Y112VV112          000257
3 XX  2100203J24MAY0507JUN05 2      DZA15151515+0300  RUN18151815+0400  733WY                                                                                               W18Y112VV112          000258
3 XX  2100301J25MAY0510JUN05  3 5   RUN10101010+0400  DZA11201120+0300  733WY                                                                                               W18Y112VV112          000259
3 XX  2100302J25MAY0510JUN05  3 5   DZA12101210+0300  NOS12551255+0300  733WY                                                                                               W18Y112VV112          000260
3 XX  2100303J25MAY0510JUN05  3 5   NOS13451345+0300  RUN16251625+0400  733WY                                                                                               W18Y112VV112          000261
3 XX  2430101J26MAY0509JUN05   4    MJN14401440+0300  DZA15251525+0300  733WY                                                            XX  206                            W18Y112VV112          000262
3 XX  2430201J14JUN0502AUG05 2      MJN13451345+0300  DZA14301430+0300  733WY                                                                                               W18Y112VV112          000263
3 XX  2430301J09AUG0509AUG05 2      MJN15251525+0300  DZA16101610+0300  733WY                                                                                               W18Y112VV112          000264
3 XX  2430401J16AUG0527SEP05 2      MJN13451345+0300  DZA14301430+0300  733WY                                                                                               W18Y112VV112          000265
3 XX  2430501J04OCT0504OCT05 2      MJN14451445+0300  DZA15301530+0300  735WY                                                                                               W18Y97VV097           000266
3 XX  2430601J11OCT0511OCT05 2      MJN14451445+0300  DZA15301530+0300  733WY                                                                                               W18Y112VV112          000267
3 XX  2430701J18OCT0525OCT05 2      MJN14401440+0300  DZA15251525+0300  733WY                                                                                               W18Y112VV112          000268
3 XX  2440101J26MAY0509JUN05   4    DZA13051305+0300  MJN13501350+0300  733WY                                                                                               W18Y112VV112          000269
3 XX  2440201J14JUN0502AUG05 2      DZA12101210+0300  MJN12551255+0300  733WY                                                            XX  243                            W18Y112VV112          000270
3 XX  2440301J09AUG0509AUG05 2      DZA13501350+0300  MJN14351435+0300  733WY                                                            XX  243                            W18Y112VV112          000271
3 XX  2440401J16AUG0527SEP05 2      DZA12101210+0300  MJN12551255+0300  733WY                                                            XX  243                            W18Y112VV112          000272
3 XX  2440501J04OCT0504OCT05 2      DZA13101310+0300  MJN13551355+0300  735WY                                                            XX  243                            W18Y97VV097           000273
3 XX  2440601J11OCT0511OCT05 2      DZA13101310+0300  MJN13551355+0300  733WY                                                            XX  243                            W18Y112VV112          000274
3 XX  2440701J18OCT0525OCT05 2      DZA13051305+0300  MJN13501350+0300  733WY                                                            XX  243                            W18Y112VV112          000275
3 XX  3410101G14JUL0514JUL05   4    RUN11051105+0400  JNB13301330+0200  733WY                                                            XX  342                            W18Y112VV112          000276
3 XX  3410201G13OCT0520OCT05   4    RUN11051105+0400  JNB13301330+0200  733Y                                                             XX  342                            Y133VV133             000277
3 XX  3420101G14JUL0514JUL05   4    JNB14301430+0200  RUN20202020+0400  733WY                                                                                               W18Y112VV112          000278
3 XX  3420201G13OCT0520OCT05   4    JNB14301430+0200  RUN20202020+0400  733Y                                                                                                Y133VV133             000279
3 XX  3710101J22MAY0510JUL05      7 RUN11051105+0400  JNB13301330+0200  733WY                                                            XX  372                            W18Y112VV112          000280
3 XX  3710201G17JUL0507AUG05      7 RUN11051105+0400  JNB13151315+0200  772JWY                                                           XX  372                            J14W34Y316VV364       000281
3 XX  3710301G14AUG0514AUG05      7 RUN11051105+0400  JNB13301330+0200  733Y                                                             XX  372                            Y133VV133             000282
3 XX  3710401J21AUG0511SEP05      7 RUN11051105+0400  JNB13301330+0200  733WY                                                            XX  372                            W18Y112VV112          000283
3 XX  3710501J18SEP0518SEP05      7 RUN11051105+0400  JNB13301330+0200  735WY                                                            XX  372                            W18Y97VV097           000284
3 XX  3710601J25SEP0509OCT05      7 RUN11051105+0400  JNB13301330+0200  733WY                                                            XX  372                            W18Y112VV112          000285
3 XX  3710701G16OCT0523OCT05      7 RUN11051105+0400  JNB13301330+0200  733WY                                                            XX  372                            W18Y112VV112          000286
3 XX  3720101J22MAY0510JUL05      7 JNB14301430+0200  RUN20202020+0400  733WY                                                                                               W18Y112VV112          000287
3 XX  3720201G17JUL0507AUG05      7 JNB14301430+0200  RUN19551955+0400  772JWY                                                                                              J14W34Y316VV364       000288
3 XX  3720301G14AUG0514AUG05      7 JNB14301430+0200  RUN20202020+0400  733Y                                                                                                Y133VV133             000289
3 XX  3720401J21AUG0511SEP05      7 JNB14301430+0200  RUN20202020+0400  733WY                                                                                               W18Y112VV112          000290
3 XX  3720501J18SEP0518SEP05      7 JNB14301430+0200  RUN20202020+0400  735WY                                                                                               W18Y97VV097           000291
3 XX  3720601J25SEP0509OCT05      7 JNB14301430+0200  RUN20202020+0400  733WY                                                                                               W18Y112VV112          000292
3 XX  3720701G16OCT0523OCT05      7 JNB14301430+0200  RUN20202020+0400  733WY                                                                                               W18Y112VV112          000293
3 XX  4610101J28MAY0511JUN05     6  RUN11151115+0400  SEZ13551355+0400  735WY                                                            XX  462                            W18Y97VV097           000294
3 XX  4610201J18JUN0525JUN05     6  RUN11151115+0400  SEZ13551355+0400  733WY                                                            XX  462                            W18Y112VV112          000295
3 XX  4610301J02JUL0503SEP05     6  RUN07000700+0400  SEZ09400940+0400  733WY                                                            XX  462                            W18Y112VV112          000296
3 XX  4610401J10SEP0529OCT05     6  RUN11151115+0400  SEZ13551355+0400  733WY                                                            XX  462                            W18Y112VV112          000297
3 XX  4620101J28MAY0511JUN05     6  SEZ14551455+0400  RUN17301730+0400  735WY                                                                                               W18Y97VV097           000298
3 XX  4620201J18JUN0525JUN05     6  SEZ14551455+0400  RUN17301730+0400  733WY                                                                                               W18Y112VV112          000299
3 XX  4620301J02JUL0503SEP05     6  SEZ10401040+0400  RUN13151315+0400  733WY                                                                                               W18Y112VV112          000300
3 XX  4620401J10SEP0529OCT05     6  SEZ14551455+0400  RUN17301730+0400  733WY                                                                                               W18Y112VV112          000301
3 XX  5450101J26MAY0509JUN05   4    RUN11351135+0400  TMM12251225+0300  AT7Y                                                             XX  546                            Y64VV064              000302
3 XX  5460101J26MAY0509JUN05   4    TMM13151315+0300  RUN16001600+0400  AT7Y                                                                                                Y64VV064              000303
3 XX  5650101J18JUN0503SEP05     6  RUN12001200+0400  TMM12201220+0300  735WY                                                            XX  566                            W18Y97VV097           000304
3 XX  5650201J10SEP0510SEP05     6  RUN12001200+0400  TMM12201220+0300  733WY                                                            XX  566                            W18Y112VV112          000305
3 XX  5650301J17SEP0529OCT05     6  RUN12001200+0400  TMM12201220+0300  735WY                                                            XX  566                            W18Y97VV097           000306
3 XX  5660101J18JUN0503SEP05     6  TMM13101310+0300  RUN15201520+0400  735WY                                                                                               W18Y97VV097           000307
3 XX  5660201J10SEP0510SEP05     6  TMM13101310+0300  RUN15201520+0400  733WY                                                                                               W18Y112VV112          000308
3 XX  5660301J17SEP0529OCT05     6  TMM13101310+0300  RUN15201520+0400  735WY                                                                                               W18Y97VV097           000309
3 XX  6110101J23MAY0527JUN051       RUN12001200+0400  TNR12351235+0300  735Y                                                             XX  612                            Y118VV118             000310
3 XX  6110201J25MAY0501JUL05  3 5   RUN12001200+0400  TNR12351235+0300  735WY                                                            XX  612                            W18Y97VV097           000311
3 XX  6110301J04JUL0526AUG051 3 5   RUN12001200+0400  TNR12351235+0300  735WY                                                            XX  612                            W18Y97VV097           000312
3 XX  6110401J29AUG0529AUG051       RUN12001200+0400  TNR12351235+0300  733WY                                                            XX  612                            W18Y112VV112          000313
3 XX  6110501J31AUG0509SEP051 3 5   RUN12001200+0400  TNR12351235+0300  735WY                                                            XX  612                            W18Y97VV097           000314
3 XX  6110601J12SEP0512SEP051       RUN12001200+0400  TNR12351235+0300  733WY                                                            XX  612                            W18Y112VV112          000315
3 XX  6110701J14SEP0507OCT051 3 5   RUN12001200+0400  TNR12351235+0300  735WY                                                            XX  612                            W18Y97VV097           000316
3 XX  6110801J10OCT0510OCT051       RUN12001200+0400  TNR12351235+0300  733WY                                                            XX  612                            W18Y112VV112          000317
3 XX  6110901J12OCT0528OCT051 3 5   RUN12001200+0400  TNR12351235+0300  735WY                                                            XX  612                            W18Y97VV097           000318
3 XX  6120101J23MAY0527JUN051       TNR13251325+0300  RUN15451545+0400  735Y                                                                                                Y118VV118             000319
3 XX  6120201J25MAY0501JUL05  3 5   TNR13251325+0300  RUN15451545+0400  735WY                                                                                               W18Y97VV097           000320
3 XX  6120301J04JUL0526AUG051 3 5   TNR13251325+0300  RUN15451545+0400  735WY                                                                                               W18Y97VV097           000321
3 XX  6120401J29AUG0529AUG051       TNR13251325+0300  RUN15451545+0400  733WY                                                                                               W18Y112VV112          000322
3 XX  6120501J31AUG0509SEP051 3 5   TNR13251325+0300  RUN15451545+0400  735WY                                                                                               W18Y97VV097           000323
3 XX  6120601J12SEP0512SEP051       TNR13251325+0300  RUN15451545+0400  733WY                                                                                               W18Y112VV112          000324
3 XX  6120701J14SEP0507OCT051 3 5   TNR13251325+0300  RUN15451545+0400  735WY                                                                                               W18Y97VV097           000325
3 XX  6120801J10OCT0510OCT051       TNR13251325+0300  RUN15451545+0400  733WY                                                                                               W18Y112VV112          000326
3 XX  6120901J12OCT0528OCT051 3 5   TNR13251325+0300  RUN15451545+0400  735WY                                                                                               W18Y97VV097           000327
3 XX  6630101J02JUL0503SEP05     6  RUN14151415+0400  TNR14501450+0300  733WY                                                                                               W18Y112VV112          000328
3 XX  6630102J02JUL0503SEP05     6  TNR15401540+0300  DZA16551655+0300  733WY                                                                                               W18Y112VV112          000329
3 XX  6630201G22OCT0522OCT05     6  RUN14151415+0400  TNR14501450+0300  733WY                                                                                               W18Y112VV112          000330
3 XX  6630202G22OCT0522OCT05     6  TNR15401540+0300  DZA16551655+0300  733WY                                                            XX  664                            W18Y112VV112          000331
3 XX  6640101J02JUL0503SEP05     6  DZA17451745+0300  TNR18551855+0300  733WY                                                                                               W18Y112VV112          000332
3 XX  6640102J02JUL0503SEP05     6  TNR19451945+0300  RUN22052205+0400  733WY                                                                                               W18Y112VV112          000333
3 XX  6640201G22OCT0522OCT05     6  DZA17451745+0300  TNR18551855+0300  733WY                                                                                               W18Y112VV112          000334
3 XX  6640202G22OCT0522OCT05     6  TNR19451945+0300  RUN22052205+0400  733WY                                                                                               W18Y112VV112          000335
3 XX  7520101J16SEP0528OCT05    5   HAH15351535+0300  RUN19001900+0400  733WY                                                                                               W18Y112VV112          000336
3 XX  7710101J18SEP0523OCT05      7 RUN07000700+0400  HAH08350835+0300  735WY                                                                                               W18Y97VV097           000337
3 XX  7770101G31MAY0531MAY05 2      RUN11101110+0400  DZA12151215+0300  772JWY                                                                                              J14W34Y316VV364       000338
3 XX  7770201G01JUN0501JUN05  3     DZA08300830+0300  RUN11251125+0400  772JWY                                                                                              J14W34Y316VV364       000339
3AXX  7770101C27MAY0527MAY05    5   RUN07000700+0400  DZA08050805+0300  772JWY                                                           XX  777                            J14W34Y316VV364       000340
3BXX  7770101C27MAY0527MAY05    5   DZA11051105+0300  RUN14001400+0400  772JWY                                                                                              J14W34Y316VV364       000341
3 XX  9450101J14JUN0525OCT05 2      RUN08100810+0400  DZA09150915+0300  772JWY                                                                                              J14W34Y316VV364       000342
3 XX  9450102J14JUN0525OCT05 2      DZA10451045+0300  HAH11301130+0300  772JWY                                                                                              J14W34Y316VV364       000343
3 XX  9450103J14JUN0525OCT05 2      HAH13001300+0300  MRS20502050+0200  772JWY                                                                                              J14W34Y316VV364       000344
3 XX  9450201J17JUN0509SEP05    5   HAH15351535+0300  RUN19001900+0400  733WY                                                                                               W18Y112VV112          000345
3 XX  9450202J17JUN0509SEP05    5   RUN22152215+0400  MRS06550655+0200  772JWY                                                                                              J14W34Y316VV364       000346
3 XX  9450301J16SEP0507OCT05    5   RUN22152215+0400  MRS06550655+0200  772JWY                                                                                              J14W34Y316VV364       000347
3 XX  9450401G14OCT0521OCT05    5   RUN22152215+0400  MRS06550655+0200  772JWY                                                                                              J14W34Y316VV364       000348
3 XX  9450501J28OCT0528OCT05    5   RUN22152215+0400  MRS06550655+0200  772JWY                                                                                              J14W34Y316VV364       000349
3 XX  9460101J14JUN0525OCT05 2      MRS23502350+0200  HAH09250925+0300  772JWY                                                                                              J14W34Y316VV364       000350
3 XX  9460201J15JUN0526OCT05  3     HAH10551055+0300  DZA11401140+0300  772JWY                                                                                              J14W34Y316VV364       000351
3 XX  9460202J15JUN0526OCT05  3     DZA13051305+0300  RUN16001600+0400  772JWY                                                                                              J14W34Y316VV364       000352
3 XX  9460301J18JUN0529OCT05     6  MRS17401740+0200  RUN05550555+0400  772JWY                                                                                              J14W34Y316VV364       000353
3 XX  9460401J19JUN0504SEP05      7 RUN07000700+0400  HAH08350835+0300  735WY                                                                                               W18Y97VV097           000354
3 XX  9460501J11SEP0511SEP05      7 RUN07000700+0400  HAH08350835+0300  733WY                                                                                               W18Y112VV112          000355
3 XX  9740101J22MAY0529MAY05123 5 7 CDG19451945+0200  RUN08400840+0400  772JWY                                                                                              J14W34Y316VV364       000356
3 XX  9740201J26MAY0501JUN051 34 6  CDG19451945+0200  RUN08400840+0400  772JWY                                                           XX  975                            J14W34Y316VV364       000357
3 XX  9740301J02JUN0508JUN051234 67 CDG19451945+0200  RUN08400840+0400  772JWY                                                                                              J14W34Y316VV364       000358
3 XX  9740401J03JUN0509JUN05   45   CDG19451945+0200  RUN08400840+0400  772JWY                                                           XX  975                            J14W34Y316VV364       000359
3 XX  9740501J10JUN0512JUN05    5 7 CDG19451945+0200  RUN08400840+0400  772JWY                                                                                              J14W34Y316VV364       000360
3 XX  9740601J11JUN0511JUN05     6  CDG19451945+0200  RUN08400840+0400  772JWY                                                           XX  975                            J14W34Y316VV364       000361
3 XX  9740701J13JUN0513JUN051       CDG19301930+0200  RUN08250825+0400  772JWY                                                                                              J14W34Y316VV364       000362
3 XX  9740801J14JUN0530AUG05 2      RUN10101010+0400  DZA11201120+0300  733WY                                                                                               W18Y112VV112          000363
3 XX  9740802J14JUN0530AUG05 2      CDG19301930+0200  RUN08250825+0400  772JWY                                                                                              J14W34Y316VV364       000364
3 XX  9740901J15JUN0529JUN05  3     RUN10101010+0400  DZA11201120+0300  733WY                                                                                               W18Y112VV112          000365
3 XX  9740902J15JUN0529JUN05  3     CDG19451945+0200  RUN08400840+0400  772JWY                                                                                              J14W34Y316VV364       000366
3 XX  9741001J16JUN0530JUN05   4567 RUN10101010+0400  DZA11151115+0300  772JWY                                                                                              J14W34Y316VV364       000367
3 XX  9741002J16JUN0530JUN05   4567 CDG19451945+0200  RUN08400840+0400  772JWY                                                                                              J14W34Y316VV364       000368
3 XX  9741101J20JUN0520JUN051       RUN10101010+0400  DZA11151115+0300  772JWY                                                                                              J14W34Y316VV364       000369
3 XX  9741102J20JUN0520JUN051       CDG19301930+0200  RUN08250825+0400  772JWY                                                                                              J14W34Y316VV364       000370
3 XX  9741201J27JUN0527JUN051       RUN10101010+0400  DZA11151115+0300  772JWY                                                           XX  975                            J14W34Y316VV364       000371
3 XX  9741202J27JUN0527JUN051       CDG19301930+0200  RUN08250825+0400  772JWY                                                                                              J14W34Y316VV364       000372
3 XX  9741301J01JUL0502JUL05    56  RUN10101010+0400  DZA11151115+0300  772JWY                                                           XX  975                            J14W34Y316VV364       000373
3 XX  9741302J01JUL0502JUL05    56  CDG19451945+0200  RUN08400840+0400  772JWY                                                                                              J14W34Y316VV364       000374
3 XX  9741401J03JUL0517JUL05    5 7 RUN10101010+0400  DZA11151115+0300  772JWY                                                                                              J14W34Y316VV364       000375
3 XX  9741402J03JUL0517JUL05    5 7 CDG19451945+0200  RUN08400840+0400  772JWY                                                                                              J14W34Y316VV364       000376
3 XX  9741501J04JUL0511JUL051       RUN10101010+0400  DZA11151115+0300  772JWY                                                                                              J14W34Y316VV364       000377
3 XX  9741502J04JUL0511JUL051       CDG19301930+0200  RUN08250825+0400  772JWY                                                                                              J14W34Y316VV364       000378
3 XX  9741601J06JUL0503AUG05  3     RUN10101010+0400  DZA11201120+0300  733WY                                                                                               W18Y112VV112          000379
3 XX  9741701J07JUL0501SEP05   4    CDG19451945+0200  RUN08400840+0400  772JWY                                                                                              J14W34Y316VV364       000380
3 XX  9741801J09JUL0503SEP05     6  RUN10101010+0400  DZA11151115+0300  772JWY                                                           XX  975                            J14W34Y316VV364       000381
3 XX  9741802J09JUL0503SEP05     6  CDG19451945+0200  RUN08400840+0400  772JWY                                                                                              J14W34Y316VV364       000382
3 XX  9741901J18JUL0505SEP051   5 7 RUN10101010+0400  DZA11151115+0300  772JWY                                                                                              J14W34Y316VV364       000383
3 XX  9741902J18JUL0505SEP051   5 7 CDG19451945+0200  RUN08400840+0400  772JWY                                                                                              J14W34Y316VV364       000384
3 XX  9742001J10AUG0510AUG05  3     RUN10551055+0400  DZA12051205+0300  733WY                                                                                               W18Y112VV112          000385
3 XX  9742101J17AUG0531AUG05  3     RUN10101010+0400  DZA11201120+0300  733WY                                                                                               W18Y112VV112          000386
3 XX  9742201J06SEP0507SEP05 23     RUN10101010+0400  DZA11201120+0300  733WY                                                                                               W18Y112VV112          000387
3 XX  9742202J06SEP0507SEP05 23     CDG19451945+0200  RUN08400840+0400  772JWY                                                                                              J14W34Y316VV364       000388
3 XX  9742301J08SEP0515SEP05   4 6  RUN10101010+0400  DZA11151115+0300  772JWY                                                                                              J14W34Y316VV364       000389
3 XX  9742302J08SEP0515SEP05   4 6  CDG19451945+0200  RUN08400840+0400  772JWY                                                                                              J14W34Y316VV364       000390
3 XX  9742401J09SEP0512SEP051   5 7 RUN10101010+0400  DZA11151115+0300  772JWY                                                           XX  975                            J14W34Y316VV364       000391
3 XX  9742402J09SEP0512SEP051   5 7 CDG19451945+0200  RUN08400840+0400  772JWY                                                                                              J14W34Y316VV364       000392
3 XX  9742501J13SEP0505OCT05 23     CDG19451945+0200  RUN08400840+0400  772JWY                                                                                              J14W34Y316VV364       000393
3 XX  9742601J16SEP0519SEP051   5 7 RUN10101010+0400  DZA11151115+0300  772JWY                                                                                              J14W34Y316VV364       000394
3 XX  9742602J16SEP0519SEP051   5 7 CDG19451945+0200  RUN08400840+0400  772JWY                                                                                              J14W34Y316VV364       000395
3 XX  9742701J17SEP0523SEP05   456  RUN10101010+0400  DZA11151115+0300  772JWY                                                           XX  975                            J14W34Y316VV364       000396
3 XX  9742702J17SEP0523SEP05   456  CDG19451945+0200  RUN08400840+0400  772JWY                                                                                              J14W34Y316VV364       000397
3 XX  9742801J24SEP0524SEP05     6  RUN10101010+0400  DZA11151115+0300  772JWY                                                                                              J14W34Y316VV364       000398
3 XX  9742802J24SEP0524SEP05     6  CDG19451945+0200  RUN08400840+0400  772JWY                                                           XX  975                            J14W34Y316VV364       000399
3 XX  9742901J25SEP0530SEP051   5 7 RUN10101010+0400  DZA11151115+0300  772JWY                                                           XX  975                            J14W34Y316VV364       000400
3 XX  9742902J25SEP0530SEP051   5 7 CDG19451945+0200  RUN08400840+0400  772JWY                                                                                              J14W34Y316VV364       000401
3 XX  9743001J29SEP0508OCT051  4 67 RUN10101010+0400  DZA11151115+0300  772JWY                                                                                              J14W34Y316VV364       000402
3 XX  9743002J29SEP0508OCT051  4 67 CDG19451945+0200  RUN08400840+0400  772JWY                                                                                              J14W34Y316VV364       000403
3 XX  9743101J07OCT0514OCT051   5 7 RUN10101010+0400  DZA11151115+0300  772JWY                                                           XX  975                            J14W34Y316VV364       000404
3 XX  9743102J07OCT0514OCT051   5 7 CDG19451945+0200  RUN08400840+0400  772JWY                                                                                              J14W34Y316VV364       000405
3 XX  9743201J11OCT0511OCT05 2      CDG19301930+0200  RUN08250825+0400  772JWY                                                                                              J14W34Y316VV364       000406
3 XX  9743301G12OCT0512OCT05  3     RUN10101010+0400  DZA11151115+0300  772JWY                                                                                              J14W34Y316VV364       000407
3 XX  9743401J13OCT0518OCT05 2 4    CDG19451945+0200  RUN08400840+0400  772JWY                                                                                              J14W34Y316VV364       000408
3 XX  9743501J15OCT0521OCT05  34567 RUN10101010+0400  DZA11151115+0300  772JWY                                                                                              J14W34Y316VV364       000409
3 XX  9743502J15OCT0521OCT05  34567 CDG19451945+0200  RUN08400840+0400  772JWY                                                                                              J14W34Y316VV364       000410
3 XX  9743601J17OCT0523OCT051    67 RUN10101010+0400  DZA11151115+0300  772JWY                                                           XX  975                            J14W34Y316VV364       000411
3 XX  9743602J17OCT0523OCT051    67 CDG19451945+0200  RUN08400840+0400  772JWY                                                                                              J14W34Y316VV364       000412
3 XX  9743701J24OCT0529OCT051 3456  RUN10101010+0400  DZA11151115+0300  772JWY                                                                                              J14W34Y316VV364       000413
3 XX  9743702J24OCT0529OCT051 3456  CDG19451945+0200  RUN08400840+0400  772JWY                                                                                              J14W34Y316VV364       000414
3 XX  9743801J25OCT0525OCT05 2      CDG19451945+0200  RUN08400840+0400  772JWY                                                                                              J14W34Y316VV364       000415
3ZXX  9740101J23MAY0531MAY05123 567 RUN09400940+0400  ZSE10101010+0400  AT7Y                                                                                                Y64VV064              000416
3ZXX  9740201J03JUN0513JUN05123 567 RUN09400940+0400  ZSE10101010+0400  AT7Y                                                                                                Y64VV064              000417
3 XX  9750101J22MAY0529MAY05 23 567 RUN20152015+0400  CDG05300530+0200  772JWY                                                                                              J14W34Y316VV364       000418
3 XX  9750201J23MAY0526MAY051  4    RUN20152015+0400  CDG05300530+0200  772JWY                                                           XX  974                            J14W34Y316VV364       000419
3 XX  9750301J30MAY0512JUN051234567 RUN20152015+0400  CDG05300530+0200  772JWY                                                                                              J14W34Y316VV364       000420
3 XX  9750401J14JUN0515JUN05 23     DZA15201520+0300  RUN18201820+0400  733WY                                                                                               W18Y112VV112          000421
3 XX  9750402J14JUN0515JUN05 23     RUN20152015+0400  CDG05300530+0200  772JWY                                                                                              J14W34Y316VV364       000422
3 XX  9750501J16JUN0528OCT051  4567 DZA15201520+0300  RUN18151815+0400  772JWY                                                                                              J14W34Y316VV364       000423
3 XX  9750502J16JUN0528OCT051  4567 RUN20152015+0400  CDG05300530+0200  772JWY                                                                                              J14W34Y316VV364       000424
3 XX  9750601J21JUN0521JUN05 2      DZA15201520+0300  RUN18201820+0400  733WY                                                                                               W18Y112VV112          000425
3 XX  9750602J21JUN0521JUN05 2      RUN20202020+0400  CDG05350535+0200  772JWY                                                                                              J14W34Y316VV364       000426
3 XX  9750701J22JUN0505JUL05 23     DZA15201520+0300  RUN18201820+0400  733WY                                                                                               W18Y112VV112          000427
3 XX  9750702J22JUN0505JUL05 23     RUN20152015+0400  CDG05300530+0200  772JWY                                                                                              J14W34Y316VV364       000428
3 XX  9750801J06JUL0503AUG05  3     DZA15201520+0300  RUN18201820+0400  733WY                                                                                               W18Y112VV112          000429
3 XX  9750802J06JUL0503AUG05  3     RUN21552155+0400  CDG07100710+0200  772JWY                                                                                              J14W34Y316VV364       000430
3 XX  9750901J12JUL0502AUG05 2      DZA15201520+0300  RUN18201820+0400  733WY                                                                                               W18Y112VV112          000431
3 XX  9750902J12JUL0502AUG05 2      RUN20152015+0400  CDG05300530+0200  772JWY                                                                                              J14W34Y316VV364       000432
3 XX  9751001J09AUG0509AUG05 2      DZA17001700+0300  RUN20002000+0400  733WY                                                                                               W18Y112VV112          000433
3 XX  9751002J09AUG0509AUG05 2      RUN23002300+0400  CDG08150815+0200  772JWY                                                                                              J14W34Y316VV364       000434
3 XX  9751101J10AUG0510AUG05  3     DZA16051605+0300  RUN19051905+0400  733WY                                                                                               W18Y112VV112          000435
3 XX  9751102J10AUG0510AUG05  3     RUN21552155+0400  CDG07100710+0200  772JWY                                                                                              J14W34Y316VV364       000436
3 XX  9751201J16AUG0523AUG05 23     DZA15201520+0300  RUN18201820+0400  733WY                                                                                               W18Y112VV112          000437
3 XX  9751202J16AUG0523AUG05 23     RUN20152015+0400  CDG05300530+0200  772JWY                                                                                              J14W34Y316VV364       000438
3 XX  9751301J24AUG0531AUG05  3     DZA15201520+0300  RUN18201820+0400  733WY                                                                                               W18Y112VV112          000439
3 XX  9751302J24AUG0531AUG05  3     RUN21552155+0400  CDG07100710+0200  772JWY                                                                                              J14W34Y316VV364       000440
3 XX  9751401J30AUG0506SEP05 2      DZA15201520+0300  RUN18201820+0400  733WY                                                                                               W18Y112VV112          000441
3 XX  9751402J30AUG0506SEP05 2      RUN20152015+0400  CDG05300530+0200  772JWY                                                                                              J14W34Y316VV364       000442
3 XX  9751501J07SEP0507SEP05  3     DZA15201520+0300  RUN18201820+0400  733WY                                                                                               W18Y112VV112          000443
3 XX  9751502J07SEP0507SEP05  3     RUN20152015+0400  CDG05300530+0200  772JWY                                                                                              J14W34Y316VV364       000444
3 XX  9751601J14SEP0526OCT05 23     RUN20152015+0400  CDG05300530+0200  772JWY                                                                                              J14W34Y316VV364       000445
3 XX  9751701J29OCT0529OCT05     6  DZA15201520+0300  RUN18151815+0400  772JWY                                                                                              J14W34Y316VV364       000446
3 XX  9751702J29OCT0529OCT05     6  RUN20152015+0400  CDG04300430+0100  772JWY                                                                                              J14W34Y316VV364       000447
3ZXX  9750101J22MAY0513JUN05123 567 ZSE18251825+0400  RUN19001900+0400  AT7Y                                                                                                Y64VV064              000448
3 XX  9760101G20JUN0520JUN051       CDG17001700+0200  RUN05550555+0400  772JWY                                                                                              J14W34Y316VV364       000449
3 XX  9760201G04JUL0505SEP051       CDG17001700+0200  RUN05550555+0400  772JWY                                                                                              J14W34Y316VV364       000450
3 XX  9760301G24OCT0524OCT051       CDG17001700+0200  RUN05550555+0400  772JWY                                                                                              J14W34Y316VV364       000451
3 XX  9770101G19JUN0519JUN05      7 RUN22152215+0400  CDG07300730+0200  772JWY                                                                                              J14W34Y316VV364       000452
3 XX  9770201G03JUL0528AUG05      7 RUN22152215+0400  CDG07300730+0200  772JWY                                                                                              J14W34Y316VV364       000453
3 XX  9770301G06JUL0531AUG05  3     RUN10101010+0400  CDG19251925+0200  772JWY                                                                                              J14W34Y316VV364       000454
3 XX  9770401G04SEP0504SEP05      7 RUN22102210+0400  CDG07250725+0200  772JWY                                                                                              J14W34Y316VV364       000455
3 XX  9770501J12OCT0512OCT05  3     RUN10101010+0400  CDG19251925+0200  772JWY                                                                                              J14W34Y316VV364       000456
3 XX  9770601G23OCT0523OCT05      7 RUN22152215+0400  CDG07300730+0200  772JWY                                                                                              J14W34Y316VV364       000457
3 XX  9780101G30JUN0501SEP05   4    CDG22002200+0200  RUN10551055+0400  772JWY                                                                                              J14W34Y316VV364       000458
3 XX  9780201G20OCT0520OCT05   4    CDG22002200+0200  RUN10551055+0400  772JWY                                                                                              J14W34Y316VV364       000459
3 XX  9790101G30JUN0501SEP05   4    RUN09050905+0400  CDG18201820+0200  772JWY                                                                                              J14W34Y316VV364       000460
3 XX  9790201G20OCT0520OCT05   4    RUN09050905+0400  CDG18201820+0200  772JWY                                                           XX  978                            J14W34Y316VV364       000461
3 XX  9840101J14JUN0529OCT0512  567 RUN09400940+0400  ZSE10101010+0400  AT7Y                                                             XX  985                            Y64VV064              000462
3 XX  9840201J15JUN0506JUL05  34    RUN09400940+0400  ZSE10101010+0400  AT7Y                                                                                                Y64VV064              000463
3 XX  9840301J13JUL0503AUG05  3     RUN09400940+0400  ZSE10101010+0400  AT7Y                                                                                                Y64VV064              000464
3 XX  9840401J14JUL0514JUL05   4    RUN10501050+0400  ZSE11201120+0400  AT7Y                                                                                                Y64VV064              000465
3 XX  9840501J21JUL0521JUL05   4    RUN12001200+0400  ZSE12301230+0400  AT7Y                                                                                                Y64VV064              000466
3 XX  9840601J28JUL0528JUL05   4    RUN10501050+0400  ZSE11201120+0400  AT7Y                                                                                                Y64VV064              000467
3 XX  9840701J10AUG0510AUG05  3     RUN12401240+0400  ZSE13101310+0400  AT7Y                                                                                                Y64VV064              000468
3 XX  9840801J17AUG0507SEP05  3     RUN09400940+0400  ZSE10101010+0400  AT7Y                                                                                                Y64VV064              000469
3 XX  9840901J08SEP0514SEP05  34    RUN09400940+0400  ZSE10101010+0400  AT7Y                                                                                                Y64VV064              000470
3 XX  9841001J15SEP0515SEP05   4    RUN10451045+0400  ZSE11151115+0400  AT7Y                                                                                                Y64VV064              000471
3 XX  9841101J21SEP0512OCT05  34    RUN09400940+0400  ZSE10101010+0400  AT7Y                                                                                                Y64VV064              000472
3 XX  9841201J19OCT0527OCT05  34    RUN09400940+0400  ZSE10101010+0400  AT7Y                                                                                                Y64VV064              000473
3 XX  9850101J14JUN0505JUL051234567 ZSE18401840+0400  RUN19151915+0400  AT7Y                                                                                                Y64VV064              000474
3 XX  9850201J07JUL0519JUL0512 4567 ZSE18401840+0400  RUN19151915+0400  AT7Y                                                                                                Y64VV064              000475
3 XX  9850301J21JUL0521JUL05   4    ZSE19501950+0400  RUN20252025+0400  AT7Y                                                                                                Y64VV064              000476
3 XX  9850401J22JUL0506SEP0512 4567 ZSE18401840+0400  RUN19151915+0400  AT7Y                                                                                                Y64VV064              000477
3 XX  9850501J07SEP0529OCT051234567 ZSE18401840+0400  RUN19151915+0400  AT7Y                                                                                                Y64VV064              000478
3 XX 22110101G09AUG0509AUG05 2      RUN06050605+0400  DZA07150715+0300  733Y                                                             XX 2212                            Y133VV133             000479
3 XX 22110201G22AUG0522AUG051       RUN07300730+0400  DZA08400840+0300  733Y                                                             XX 2212                            Y133VV133             000480
3 XX 22120101G09AUG0509AUG05 2      DZA08000800+0300  RUN11001100+0400  733Y                                                                                                Y133VV133             000481
3 XX 22120201G22AUG0522AUG051       DZA09300930+0300  RUN12301230+0400  733Y                                                                                                Y133VV133             000482
3 XX 22140101G11JUL0511JUL051       DZA16301630+0300  RUN19301930+0400  733Y                                                                                                Y133VV133             000483
3 XX 22140201G10AUG0510AUG05  3     DZA08000800+0300  RUN11001100+0400  735Y                                                                                                Y118VV118             000484
3 XX 22150101G11JUL0511JUL051       RUN14301430+0400  DZA15401540+0300  733Y                                                             XX 2214                            Y133VV133             000485
3 XX 22150201G10AUG0510AUG05  3     RUN06050605+0400  DZA07150715+0300  735Y                                                             XX 2214                            Y118VV118             000486
3 XX 22210101G05JUL0519JUL05 2      RUN11001100+0400  DZA12101210+0300  735Y                                                             XX 2222                            Y118VV118             000487
3 XX 22210201G16AUG0516AUG05 2      RUN11001100+0400  DZA12101210+0300  735Y                                                             XX 2222                            Y118VV118             000488
3 XX 22210301G06SEP0506SEP05 2      RUN11001100+0400  DZA12101210+0300  735Y                                                             XX 2222                            Y118VV118             000489
